{
  "contractName": "MultiLevelDistribution_AirDrop",
  "abi": [
    {
      "inputs": [],
      "name": "_Ownable",
      "outputs": [],
      "stateMutability": "nonpayable",
      "type": "function"
    },
    {
      "inputs": [],
      "name": "owner",
      "outputs": [
        {
          "internalType": "address",
          "name": "",
          "type": "address"
        }
      ],
      "stateMutability": "view",
      "type": "function"
    },
    {
      "inputs": [
        {
          "internalType": "address",
          "name": "newOwner",
          "type": "address"
        }
      ],
      "name": "transferOwnership",
      "outputs": [],
      "stateMutability": "nonpayable",
      "type": "function"
    },
    {
      "inputs": [
        {
          "internalType": "address",
          "name": "_tokenAddr",
          "type": "address"
        },
        {
          "internalType": "address[]",
          "name": "dests",
          "type": "address[]"
        },
        {
          "internalType": "uint256[]",
          "name": "values",
          "type": "uint256[]"
        }
      ],
      "name": "MultiLevelDistribution",
      "outputs": [
        {
          "internalType": "uint256",
          "name": "",
          "type": "uint256"
        }
      ],
      "stateMutability": "nonpayable",
      "type": "function"
    },
    {
      "inputs": [
        {
          "internalType": "address",
          "name": "receiver",
          "type": "address"
        },
        {
          "internalType": "uint256",
          "name": "value",
          "type": "uint256"
        }
      ],
      "name": "AirDrop",
      "outputs": [],
      "stateMutability": "nonpayable",
      "type": "function"
    }
  ],
  "bytecode": "0x608060405234801561001057600080fd5b5061074c806100206000396000f3fe608060405234801561001057600080fd5b50600436106100575760003560e01c80632a2f3a6f1461005c5780638da5cb5b146100aa578063a78d85ae146100f4578063dc1f2157146100fe578063f2fde38b1461027e575b600080fd5b6100a86004803603604081101561007257600080fd5b81019080803573ffffffffffffffffffffffffffffffffffffffff169060200190929190803590602001909291905050506102c2565b005b6100b26103a3565b604051808273ffffffffffffffffffffffffffffffffffffffff1673ffffffffffffffffffffffffffffffffffffffff16815260200191505060405180910390f35b6100fc6103c8565b005b6102686004803603606081101561011457600080fd5b81019080803573ffffffffffffffffffffffffffffffffffffffff1690602001909291908035906020019064010000000081111561015157600080fd5b82018360208201111561016357600080fd5b8035906020019184602083028401116401000000008311171561018557600080fd5b919080806020026020016040519081016040528093929190818152602001838360200280828437600081840152601f19601f820116905080830192505050505050509192919290803590602001906401000000008111156101e557600080fd5b8201836020820111156101f757600080fd5b8035906020019184602083028401116401000000008311171561021957600080fd5b919080806020026020016040519081016040528093929190818152602001838360200280828437600081840152601f19601f82011690508083019250505050505050919291929050505061040a565b6040518082815260200191505060405180910390f35b6102c06004803603602081101561029457600080fd5b81019080803573ffffffffffffffffffffffffffffffffffffffff1690602001909291905050506105dc565b005b60007354f5f129ec7a47ce355088f213626a1e44add72e90508073ffffffffffffffffffffffffffffffffffffffff1663a9059cbb84846040518363ffffffff1660e01b8152600401808373ffffffffffffffffffffffffffffffffffffffff1673ffffffffffffffffffffffffffffffffffffffff16815260200182815260200192505050602060405180830381600087803b15801561036257600080fd5b505af1158015610376573d6000803e3d6000fd5b505050506040513d602081101561038c57600080fd5b810190808051906020019092919050505050505050565b6000809054906101000a900473ffffffffffffffffffffffffffffffffffffffff1681565b336000806101000a81548173ffffffffffffffffffffffffffffffffffffffff021916908373ffffffffffffffffffffffffffffffffffffffff160217905550565b60008060009054906101000a900473ffffffffffffffffffffffffffffffffffffffff1673ffffffffffffffffffffffffffffffffffffffff163373ffffffffffffffffffffffffffffffffffffffff16146104ce576040517f08c379a00000000000000000000000000000000000000000000000000000000081526004018080602001828103825260158152602001807f596f7520617265206e6f7420746865206f776e6572000000000000000000000081525060200191505060405180910390fd5b60008090505b83518110156105d1578473ffffffffffffffffffffffffffffffffffffffff1663a9059cbb85838151811061050557fe5b602002602001015185848151811061051957fe5b60200260200101516040518363ffffffff1660e01b8152600401808373ffffffffffffffffffffffffffffffffffffffff1673ffffffffffffffffffffffffffffffffffffffff16815260200182815260200192505050602060405180830381600087803b15801561058a57600080fd5b505af115801561059e573d6000803e3d6000fd5b505050506040513d60208110156105b457600080fd5b8101908080519060200190929190505050506001810190506104d4565b809150509392505050565b6000809054906101000a900473ffffffffffffffffffffffffffffffffffffffff1673ffffffffffffffffffffffffffffffffffffffff163373ffffffffffffffffffffffffffffffffffffffff161461069e576040517f08c379a00000000000000000000000000000000000000000000000000000000081526004018080602001828103825260158152602001807f596f7520617265206e6f7420746865206f776e6572000000000000000000000081525060200191505060405180910390fd5b600073ffffffffffffffffffffffffffffffffffffffff168173ffffffffffffffffffffffffffffffffffffffff161461071357806000806101000a81548173ffffffffffffffffffffffffffffffffffffffff021916908373ffffffffffffffffffffffffffffffffffffffff1602179055505b5056fea2646970667358221220fb5b7127172f99cc93ecb25ff978a28ca1b8571cf4e8c6fb3b4738fb5d99198864736f6c63430006000033",
  "source": "pragma solidity >=0.4.25 <0.7.0;\n\nimport \"./IERC20.sol\";\n\ncontract Ownable {\n  address public owner;\n\n  function _Ownable() public {\n    owner = msg.sender;\n  }\n\n  modifier onlyOwner() {\n    if (msg.sender != owner) {\n      revert(\"You are not the owner\");\n    }\n    _;\n  }\n\n  function transferOwnership(address newOwner) public onlyOwner {\n    if (newOwner != address(0)) {\n      owner = newOwner;\n    }\n  }\n}\n\ncontract MultiLevelDistribution_AirDrop is Ownable {\n\n    function MultiLevelDistribution(address _tokenAddr, address[] memory dests, uint256[] memory values)public onlyOwner returns (uint256) {\n        uint256 i = 0;\n        while (i < dests.length) {\n           IERC20(_tokenAddr).transfer(dests[i], values[i]);\n           i += 1;\n        }\n        return(i);\n    }\n\n    function AirDrop ( address receiver, uint256 value) public {\n      address _tokenAddr = 0x54F5f129eC7A47Ce355088F213626a1E44adD72E; //address of my token\n      IERC20(_tokenAddr).transfer(receiver, value);\n  }\n\n}",
  "sourcePath": "C:\\Users\\torta\\OneDrive\\Documents\\ESILV\\Semestre 2\\Blockchain Programming\\TD5_ICO\\contracts\\Airdrop.sol",
  "compiler": {
    "name": "solc",
    "version": "0.6.0+commit.26b70077.Emscripten.clang"
  },
  "schemaVersion": "3.0.23",
  "updatedAt": "2020-03-02T20:56:00.011Z",
  "devdoc": {
    "methods": {}
  },
  "userdoc": {
    "methods": {}
  }
}